:100000000C945E000C9486000C9486000C94860080
:100010000C9486000C9486000C9486000C94860048
:100020000C9486000C9486000C9486000C94860038
:100030000C9486000C9486000C9486000C94860028
:100040000C94A60C0C9486000C94740C0C944E0C1E
:100050000C9486000C9486000C9486000C94860008
:100060000C9486000C948600000000080002010039
:100070000003040700000000000000000000000072
:10008000250028002B0000000000240027002A0083
:10009000040404040404040402020202020203032E
:1000A0000303030301020408102040800102040836
:1000B0001020010204081020F00C090F11241FBEAB
:1000C000CFEFD8E0DEBFCDBF24E0A6E1B3E001C0B2
:1000D0001D92A537B207E1F713E0A0E0B1E0EEEC26
:1000E000F4E202C005900D92A631B107D9F710E0F5
:1000F000CDE5D0E004C02197FE010E943110CC353F
:10010000D107C9F70E94730D0C945A120C94000089
:10011000089590E0FC01EC55FF4F249180579F4FCC
:10012000FC018491882399F090E0880F991FFC01CD
:10013000EA57FF4FA591B491FC01E458FF4F859118
:1001400094918FB7F894EC91E22BEC938FBF0895C4
:10015000AF92BF92CF92DF92EF92FF920F931F93D5
:10016000CF93DF936C017B018B01040F151FEB0113
:100170005E01AE18BF08C017D10759F06991D601CA
:10018000ED91FC910190F081E02DC6010995892B3C
:1001900079F7C501DF91CF911F910F91FF90EF90FB
:1001A000DF90CF90BF90AF900895FC0144815581BE
:1001B0006081718182E393E00C94A800FC01538D6F
:1001C000448D252F30E0842F90E0821B930B541731
:1001D00010F0CF96089501970895FC01918D828DBE
:1001E000981761F0A28DAE0FBF2FB11D5D968C9157
:1001F000928D9F5F9F73928F90E008958FEF9FEF96
:100200000895FC01918D828D981731F0828DE80F51
:10021000F11D858D90E008958FEF9FEF0895FC010B
:10022000918D228D892F90E0805C9F4F821B9109D8
:100230008F739927089582E393E00E940F0121E0D4
:10024000892B09F420E0822F0895FC01A48DA80FCA
:10025000B92FB11DA35ABF4F2C91848D90E0019608
:100260008F739927848FA689B7892C93A089B18928
:100270008C91837080648C93938D848D981306C0C9
:100280000288F389E02D80818F7D80830895EF922D
:10029000FF920F931F93CF93DF93EC0181E0888F40
:1002A0009B8D8C8D98131AC0E889F989808185FF10
:1002B00015C09FB7F894EE89FF896083E889F989B2
:1002C00080818370806480839FBF81E090E0DF91B4
:1002D000CF911F910F91FF90EF900895F62E0B8D07
:1002E00010E00F5F1F4F0F731127E02E8C8D8E11C2
:1002F0000CC00FB607FCFACFE889F989808185FF29
:10030000F5CFCE010E942501F1CFEB8DEC0FFD2F33
:10031000F11DE35AFF4FF0829FB7F8940B8FEA89E3
:10032000FB8980818062CFCFCF93DF93EC01888DF2
:100330008823B9F0AA89BB89E889F9898C9185FD60
:1003400003C0808186FD0DC00FB607FCF7CF8C91EE
:1003500085FFF2CF808185FFEDCFCE010E94250180
:10036000E9CFDF91CF91089590E0FC01E859FF4F6C
:100370002491FC01EC55FF4F3491FC01E057FF4FF5
:10038000E491EE23C9F0222339F0233001F1A8F4DF
:10039000213019F1223029F1F0E0EE0FFF1FE4586F
:1003A000FF4FA591B4918FB7F894EC91611126C0DD
:1003B00030953E233C938FBF08952730A9F0283015
:1003C000C9F0243049F7809180008F7D03C080916F
:1003D00080008F7780938000DFCF84B58F7784BDD6
:1003E000DBCF84B58F7DFBCF8091B0008F7780937A
:1003F000B000D2CF8091B0008F7DF9CF3E2BDACF05
:100400002FB7F89460912203709123038091240305
:10041000909125032FBF08950F931F930E94000210
:1004200060933A0370933B0380933C0390933D03A6
:1004300082E393E00E94ED0097FF1DC00E9400023E
:1004400000913A0310913B0320913C0330913D030E
:10045000601B710B820B930B0091360310913703D5
:100460002091380330913903601771078207930791
:10047000F8F28FEF9FEF1F910F9108950F931F9345
:100480000E9400028B019C014091190350911A03B4
:1004900060911B0370911C0380912C0390912D039C
:1004A000A0912E03B0912F03041B150B260B370BC5
:1004B000083E134021053105C0F00196A11DB11D74
:1004C00080932C0390932D03A0932E03B0932F03BE
:1004D00048515C4F6F4F7F4F4093190350931A035D
:1004E00060931B0370931C03CBCF40912803509162
:1004F000290360912A0370912B0384179507A6079F
:10050000B707D0F1E0912603F09127033097A1F1CE
:100510000995AB01BC018091020190910301A0916A
:100520000401B0910501411551056105710579F18D
:1005300040932C0350932D0360932E0370932F034D
:10054000840F951FA61FB71F80932803909329033C
:10055000A0932A03B0932B0382E090E090931803BA
:10056000809317030E9400026093190370931A038B
:1005700080931B0390931C0360912C0370912D03B7
:1005800080912E0390912F031F910F910895409118
:100590002C0350912D0360912E0370912F03840F33
:1005A000951FA61FB71F8093280390932903A0933C
:1005B0002A03B0932B0381E090E020911703309140
:1005C0001803232B11F490E080E09093180380939C
:1005D0001703D2CF4F925F926F927F928F929F922A
:1005E000AF92BF92CF92DF92EF92FF92CF93DF93C1
:1005F000CDB7DEB766970FB6F894DEBF0FBECDBF9E
:100600009E8B8D8B0E943E026B017C01AD89BE8961
:100610001A968C911A97982F9F702EE0290F2F70A1
:10062000233008F06CC016964D915D916D917C91D0
:100630001997C416D506E606F70608F460C092308E
:1006400049F412968D919D910D90BC91A02DED894C
:10065000FE892CC1933009F08AC0AD89BE891296FB
:100660004D905D906D907C9015970E943E026D8339
:100670007E838F83988790E8892E91E5992EAA240E
:10068000A394B12CC701B601A50194010E94F30FF8
:1006900029833A834B835C836D817E818F8198852A
:1006A000A50194010E94F30F60E871E581E090E0FC
:1006B0000E94CF0F460E571E681E791EED89FE89D7
:1006C00082809380A480B58029813A814B815C81AE
:1006D000C414D504E604F704C8F12F5F3F4F4F4F11
:1006E0005F4F60E871E581E090E00E94CF0F860ED9
:1006F000971EA81EB91E86829782A086B186ED89B4
:10070000FE8982858F70813061F482819381A4811A
:10071000B5818C0D9D1DAE1DBF1D86839783A0875F
:10072000B18766960FB6F894DEBF0FBECDBFDF91DE
:10073000CF91FF90EF90DF90CF90BF90AF909F90C0
:100740008F907F906F905F904F90089560E871E573
:1007500081E090E00E94CF0F860E971EA81EB91E62
:10076000ED89FE8986829782A086B186C8CF9430B3
:1007700009F0B6C0AD89BE8912962D913D914D917B
:100780005C91159729873A874B875C870E943E02C8
:100790004B015C010E943E026D877E878F87988B9C
:1007A0000E943E02698B7A8B8B8B9C8B80E8482E53
:1007B00081E5582E66246394712CC701B601A3010C
:1007C00092010E94F30F6D837E838F839887CA0105
:1007D000B9016C5F7F4F8F4F9F4F27E030E040E0C3
:1007E00050E00E94F30F9B01AC0160E871E581E0ED
:1007F00090E00E94CF0F69837A838B839C83298545
:100800003A854B855C85820E931EA41EB51E6D85B0
:100810007E858F859889A30192010E94F30F861A25
:10082000970AA80AB90A69897A898B899C89A301E0
:1008300092010E94F30FCA01B9016C5F7F4F8F4F85
:100840009F4F27E030E040E050E00E94F30F9B0113
:10085000AC0160E871E581E090E00E94CF0F861A5C
:10086000970AA80AB90AED89FE8982819381A48139
:10087000B581C814D904EA04FB04E8F08058954C0B
:10088000A64FBF4F8C0D9D1DAE1DBF1D2D813E81FE
:100890004F815885821B930BA40BB50B29813A819C
:1008A0004B815C81821B930BA40BB50B86839783D2
:1008B000A087B18724CF8C0D9D1DAE1DBF1D2D813E
:1008C0003E814F815885821B930BA40BB50B298168
:1008D0003A814B815C81821B930BA40BB50BB7CE85
:1008E0008F7EAD89BE891A968C9309CFAF92BF9245
:1008F000CF92DF92EF92FF920F931F93CF93DF93EC
:100900006B017C01EA01A22EC8010297039708F44B
:1009100053C0C8010197029730F4C114D104E10417
:10092000F10409F451C030E020E09BE0B22E929F28
:10093000D001939FB00D1124FD01E752FC4F80813F
:100940008F7009F047C0A153BC4F1196DC93CE9332
:100950008081A0FA85F90F70807F802B80831296AA
:10096000CD92DD92ED92FC921597015F0F700230EF
:1009700020F4CD28CE28CF2851F18BE0829FA00112
:10098000839F500D1124FA01E752FC4F9081906132
:10099000908394FF05C0CA0181539C4F0E94EA02D4
:1009A0008B2DDF91CF911F910F91FF90EF90DF90F2
:1009B000CF90BF90AF9008950E943E02603873437D
:1009C000814E914008F0A5CFBB24BA94E9CF8F7E29
:1009D0008083E6CF2F5F3F4F2E30310509F0A6CF41
:1009E000F3CFFC0101900020E9F73197AF01481BDC
:1009F000590BBC0182E393E00C94A800CF93DF93E2
:100A0000EC0180916B0490916C040097E9F068818F
:100A1000798161157105B1F040916D0450916E04BA
:100A20002C813D814217530768F00E942B128C8164
:100A30009D819093700480936F041D821C82DF91CE
:100A4000CF9108950E94D3108881998190936C046E
:100A500080936B048A819B8190936E0480936D04D4
:100A60008C819D819093700480936F041982188209
:100A70001B821A82E2CFCF93DF93EC0188819981A8
:100A8000009711F00E94D310198218821D821C82D7
:100A90001B821A82DF91CF910895FC0180819181A0
:100AA000009711F00C94D3100895FC01808191817E
:100AB000009711F00C940D0F60E070E0CB010895E9
:100AC000FB0144815581FC012481358124173507C0
:100AD00078F080819181009759F0FB0160817181EC
:100AE0006115710529F00E94321221E0892B09F06D
:100AF00020E0822F0895FC0124813581232B39F4D5
:100B000021E0FB018081882349F020E007C080813B
:100B100091810E94221221E0892BB9F7822F08953A
:100B20000F931F93CF93DF93EC01888199810097F6
:100B300059F02A813B812617370730F081E0DF9199
:100B4000CF911F910F9108958B016F5F7F4F0E948E
:100B50005C11009759F0998388831B830A832C8149
:100B60003D81232B59F7FC011082E8CF80E0E7CFCD
:100B7000EF92FF920F931F93CF93DF93611571054F
:100B800041F480E0DF91CF911F910F91FF90EF90A2
:100B9000089541155105B1F07B01EC010C811D81D7
:100BA000040F151FB8010E949005882351F3288176
:100BB00039818C819D81B701820F931F0E942B1276
:100BC0001D830C8381E0DECFCF93DF93EC01FB012B
:100BD00044815581608171810E94B805811103C0F3
:100BE000CE010E943B05CE01DF91CF910895EF9297
:100BF000FF920F931F93CF93DF93EC017B018A0148
:100C0000BA010E94900581110BC0CE010E943B05E4
:100C1000CE01DF91CF911F910F91FF90EF9008953A
:100C20001D830C83B701888199810E942B12F0CF1C
:100C3000FB0101900020E9F73197AF01461B570BEC
:100C40000C94F7050F931F93CF93DF93CDB7DEB7C7
:100C500062970FB6F894DEBF0FBECDBF8C01CB01FB
:100C6000F8011182108213821282158214824AE0E6
:100C7000BE016F5F7F4F0E94340FBE016F5F7F4FD9
:100C8000C8010E94180662960FB6F894DEBF0FBE28
:100C9000CDBFDF91CF911F910F910895CF93DF9337
:100CA00000D000D000D0CDB7DEB78AE291E00E943C
:100CB000F1046091160370E0CE0101960E942206B5
:100CC000CE0101960E94D500CE0101960E944D05ED
:100CD0006091310370E0CE0101960E942206CE01A0
:100CE00001960E94D500CE0101960E944D056091AB
:100CF000300370E0CE0101960E942206CE010196DB
:100D00000E94D500CE0101960E944D050E943E0230
:100D10008091170390911803029771F082E391E09C
:100D20000E94F1040E943E028091170390911803E3
:100D30008C5C9E4F0E94F1048EE391E00E94F104CE
:100D400026960FB6F894DEBF0FBECDBFDF91CF91D0
:100D50000895CF93DF9300D0CDB7DEB7FC011182A9
:100D60001082138212821582148269831A82BE0154
:100D70006F5F7F4F0E9418060F900F90DF91CF9109
:100D80000895FC011182108213821282158214824E
:100D9000FB0101900020E9F73197AF01461B570B8B
:100DA0000C94F7050F931F93CF93DF9300D0CDB72B
:100DB000DEB78C0160E471E00E94C1060E940C0263
:100DC00097FD0BC089831A8241E050E0BE016F5F3E
:100DD0007F4FC8010E94B805F1CFC8010F900F9056
:100DE000DF91CF911F910F910895CF93DF9300D0A2
:100DF00000D000D0CDB7DEB761E471E0CE0101963E
:100E00000E94C106CE0101960E944D0581E08093AB
:100E1000310326960FB6F894DEBF0FBECDBFDF912B
:100E2000CF910895CF93DF9300D000D000D0CDB7FD
:100E3000DEB762E571E0CE0101960E94C106CE01E7
:100E400001960E944D051092310326960FB6F89434
:100E5000DEBF0FBECDBFDF91CF910895AF92BF929D
:100E6000CF92DF92EF92FF920F931F93CF93DF9376
:100E70006C015B017A0189012417350720F48F2D5D
:100E80007901042F182F60E471E0C6010E94C106A9
:100E9000D5011496CD91DC91EC16FD06E0F40C170B
:100EA0001D0708F4E801D501ED91FC911197EC0FB5
:100EB000FD1F108110826D917C916E0D7F1DC6010A
:100EC00061157105A1F00E941806F50180819181DC
:100ED000C80FD91F1883C601DF91CF911F910F91C1
:100EE000FF90EF90DF90CF90BF90AF9008950E9459
:100EF0003B05EBCFCF93DF9300D000D000D0CDB730
:100F0000DEB764E671E0CE0101960E94C106CE0113
:100F100001960E944D051092300326960FB6F89464
:100F2000DEBF0FBECDBFDF91CF910895CF93DF938A
:100F300000D000D000D0CDB7DEB765E771E0CE01BC
:100F400001960E94C106CE0101960E944D0581E0E6
:100F50008093300326960FB6F894DEBF0FBECDBF48
:100F6000DF91CF9108950F931F93CF93DF9300D01C
:100F700000D000D0CDB7DEB765E871E0CE010196B4
:100F80000E94C106CE0101960E944D050E9496075F
:100F900001E010E021E04AE757E060ED72E080E018
:100FA00090E00E94760426960FB6F894DEBF0FBE3E
:100FB000CDBFDF91CF911F910F910895FB01DC010F
:100FC00011961C921E9213961C921E9212971596C1
:100FD0001C921E9214978617970749F060817181C1
:100FE0006115710521F0448155810C94F705089530
:100FF0000F931F93CF93DF93CDB7DEB762970FB6F2
:10100000F894DEBF0FBECDBF609100017091010169
:101010006115710509F441C0CE0107960E942206B0
:1010200061EA71E0CE0101960E94C106BE01695FCE
:101030007F4FCE0101960E94E405BC01CE010D96C2
:101040000E94DE07CE010D960E944D05CE0101964D
:101050000E944D05CE0107960E944D0501E010E06B
:1010600021E048EF57E068E077E080E090E00E9400
:1010700076040E94F50621E042E157E068E572E05F
:1010800080E090E00E94760480910001909101013F
:101090000197909301018093000162960FB6F89436
:1010A000DEBF0FBECDBFDF91CF911F910F9108958D
:1010B0000F931F93CF93DF93CDB7DEB762970FB631
:1010C000F894DEBF0FBECDBF88E090E090930101A1
:1010D0008093000168E070E0CE0107960E9422062E
:1010E00064EB71E0CE0101960E94C106BE01695F0A
:1010F0007F4FCE0101960E94E4058C0143E150E050
:101100006EEC71E00E94B805811103C0C8010E9415
:101110003B05B801CE010D960E94DE07CE010D966B
:101120000E944D05CE0101960E944D05CE01079605
:101130000E944D050E94F80762960FB6F894DEBF34
:101140000FBECDBFDF91CF911F910F910895FF92F8
:101150000F931F93CF93DF93CDB7DEB768970FB68A
:10116000F894DEBF0FBECDBF8C0162EE71E0CE0100
:1011700001960E94C106B801CE0101960E94E405C5
:10118000BC01CE0107960E94DE07CE0107960E94A1
:101190004D05CE0101960E944D05D80114968D9102
:1011A0009C911597892BE1F1ED91FC913097C1F15C
:1011B0006081CE0107960E94A906F801848195817D
:1011C000029780F10190F081E02D309759F1618113
:1011D000CE010D960E94A906D80114968D919C917E
:1011E0001597039708F1ED91FC913097E9F0628132
:1011F000CE0143960E94A906F0901603FF2009F441
:101200005BC06CEE71E0CE0107960E947B058823DF
:1012100069F0109216030E9412070E947A0733C0E9
:1012200060E0C7CF60E0D4CF60E0E2CF6EEE71E067
:10123000CE0101960E94C106CE0101960E944D0585
:1012400060E372E0CE010D960E947B0581110E9441
:10125000F5066CEE71E0CE010D960E947B058111C2
:101260000E94120760E372E0CE0143960E947B0564
:1012700081110E9496076CEE71E0CE0143960E94A8
:101280007B058111CACFCE0143960E944D05CE0148
:101290000D960E944D05CE0107960E944D058F2D9B
:1012A00068960FB6F894DEBF0FBECDBFDF91CF9129
:1012B0001F910F91FF90089560E372E0CE010796B1
:1012C0000E947B058823F9F268E072E0CE01019666
:1012D0000E94C106CE0101960E944D0581E08093D7
:1012E0001603B801CE0101960E94DE07CE010196D9
:1012F0000E94A708F82ECE0101960E944D05C3CF8B
:101300000F931F93CF93DF9300D000D000D0CDB7C1
:10131000DEB760E471E08BE694E00E941806CE012F
:1013200001960E94D206CE0101960E94FE04CE01D3
:1013300001960E944D0569E172E0CE0101960E947E
:10134000C106BE016F5F7F4F8BE694E00E9460058F
:10135000182FCE0101960E944D05112309F44BC0B0
:1013600020916F043091700448E050E06BE674E027
:10137000CE0101960E942E07CE0101960E94FE0426
:10138000CE0101960E944D0562E272E0CE01019607
:101390000E94C1066BE674E0CE0101960E94E4054E
:1013A0000E94D5008EE391E00E94F104CE010196E7
:1013B0000E944D056BE674E0CE0101960E94DE07A7
:1013C000CE0101960E94A708CE0101960E944D050C
:1013D00087E292E00E94F1048EE391E00E94F10422
:1013E00026960FB6F894DEBF0FBECDBFDF91CF912A
:1013F0001F910F91089562E372E0CE0101960E9461
:10140000C106BE016F5F7F4F8BE694E00E946005CE
:10141000182FCE0101960E944D05112321F168E39A
:1014200072E0CE0101960E94C1066BE674E0CE0127
:1014300001960E94E4058C014EE050E06FE372E0FB
:101440000E94B805811103C0C8010E943B05C80174
:101450000E94D5008EE391E00E94F104CE01019636
:101460000E944D05BDCF6EE472E0CE0101960E9450
:10147000C106BE016F5F7F4F8BE694E00E9460055E
:10148000182FCE0101960E944D05112309F4A8CF13
:101490000E944E06A5CF0E941B0181110C94800969
:1014A00008952F923F924F925F926F927F928F9208
:1014B0009F92AF92BF92CF92DF92EF92FF920F93E3
:1014C0001F93CF93DF93CDB7DEB76A970FB6F8942B
:1014D000DEBF0FBECDBF0AE010E085E592E00E94BE
:1014E000F104CE0143960E94D2066BE572E0CE0174
:1014F00001960E94C106BE016F5F7F4FCE014396E9
:101500000E946005F82ECE0101960E944D05F11053
:1015100022C060E672E0CE0101960E94C106CE01B3
:1015200001960E944D05CE0143960E944D05015043
:10153000110999F66BE872E0CE0101960E94C1068E
:10154000CE0101960E944D056CEE71E0CE0107962A
:101550000E94C10655C060E272E0CE0101960E9471
:10156000C1068F89988D892B09F47EC00B891C894F
:1015700069817A81C8010E944012009709F474C001
:101580009C01201B310B8901CE0101960E944D0563
:101590000F5F1F4F2F89388DA801BE016D5E7F4FF1
:1015A000CE0107960E942E0761E872E0CE010D96EB
:1015B0000E94C106BE01695F7F4FCE010D960E9459
:1015C000E405BC01CE0101960E94DE07CE01019622
:1015D0000E944D05CE010D960E944D05CE01079645
:1015E0000E944D052F89388DA801BE016D5E7F4F89
:1015F000CE0107960E942E07CE0143960E944D050C
:101600006CEE71E0CE0107960E947B05882379F18C
:101610006DEB72E0CE0101960E94C106CE010196EB
:101620000E944D05412C512C3201CE0107960E949B
:101630004D05C301B2016A960FB6F894DEBF0FBE26
:10164000CDBFDF91CF911F910F91FF90EF90DF9071
:10165000CF90BF90AF909F908F907F906F905F9052
:101660004F903F902F9008950FEF1FEF8DCF24E004
:1016700030E050E040E0BE01695F7F4FCE0101964F
:101680000E942E07CE0101960E945505162FCE010D
:1016900001960E944D0527E030E045E050E0BE0194
:1016A000695F7F4FCE0101960E942E07CE01019601
:1016B0000E945505862ECE0101960E944D052AE016
:1016C00030E048E050E0BE01695F7F4FCE010196F7
:1016D0000E942E07CE0101960E945505698FCE010A
:1016E00001960E944D052DE030E04BE050E0BE0138
:1016F000695F7F4FCE0101960E942E07CE010196B1
:101700000E945505362ECE0101960E944D0520E11E
:1017100030E04EE050E0BE01695F7F4FCE010196A0
:101720000E942E07CE0101960E945505262ECE015D
:1017300001960E944D052B853C8541E150E0BE019C
:10174000695F7F4FCE0101960E942E07CE01019660
:101750000E9455056A8FCE0101960E944D05125BCD
:10176000A12FB0E020E833E341EE51E00E947E0F6C
:101770002B013C01E2EBF7E09D0104E610E080E97B
:10178000E82EFF24F394CF01825B974082179307E2
:1017900094F12E54384FC90164E670E00E94DF0FC7
:1017A0007C01C90160E971E00E94DF0F6C010CE06F
:1017B00011E0E1E0F0E0912C590183E0A822BB2484
:1017C000E815F9050CF040C0E230F10571F5A114FF
:1017D000B10459F5E114F10419F4C114D10429F547
:1017E000A0E84A0EABE35A1EA6E26A1E711C3196AF
:1017F0000F5F1F4FE5CFCF0183709927892B99F495
:10180000CF01B8010E94DF0F892B31F4CF01B7015E
:101810000E94DF0F892B39F490E8490E91E5591E9B
:1018200091E0691E711C3196AECFD8018C91A82F22
:10183000B0E020E831E541E050E00E947E0F460E26
:10184000571E681E791ED3CF232D30E0A0E1BEE0E5
:101850000E94C00F6B017C01222D30E0ACE3B0E0B0
:101860000E94C00FC60ED71EE81EF91EBA8DCB0E01
:10187000D11CE11CF11C298D2150330BD90120E82A
:1018800031E541E050E00E941510C60ED71EE81E5B
:10189000F91E4C0C5D1C6E1C7F1CC7CE1F920F9254
:1018A0000FB60F9211242F933F934F935F936F9333
:1018B0007F938F939F93AF93BF93EF93FF9382E3B5
:1018C00093E00E942501FF91EF91BF91AF919F910D
:1018D0008F917F916F915F914F913F912F910F90D9
:1018E0000FBE0F901F9018951F920F920FB60F9278
:1018F00011242F938F939F93EF93FF93E0914203D3
:10190000F09143038081E0914803F091490382FD07
:101910001BC0908180914B038F5F8F7320914C038C
:10192000821741F0E0914B03F0E0EE5CFC4F958FA5
:1019300080934B03FF91EF919F918F912F910F9087
:101940000FBE0F901F9018958081F4CF1F920F92B9
:101950000FB60F9211242F933F938F939F93AF93C2
:10196000BF938091220390912303A0912403B0910F
:1019700025033091210323E0230F2D3758F50196DD
:10198000A11DB11D20932103809322039093230373
:10199000A0932403B093250380911D0390911E030F
:1019A000A0911F03B09120030196A11DB11D80934A
:1019B0001D0390931E03A0931F03B0932003BF91B8
:1019C000AF919F918F913F912F910F900FBE0F90EC
:1019D0001F90189526E8230F0296A11DB11DD2CFA6
:1019E000109235031092340388EE93E0A0E0B0E04B
:1019F0008093360390933703A0933803B093390351
:101A00008CE191E0909333038093320385EC90E076
:101A100090933F0380933E0384EC90E090934103C6
:101A20008093400380EC90E09093430380934203C3
:101A300081EC90E0909345038093440382EC90E026
:101A4000909347038093460386EC90E0909349037C
:101A50008093480310924B0310924C0310924D0355
:101A600010924E03AFECB3E0FD018285807C82874B
:101A700016821782108611861282138214821582B2
:101A8000118210823B9684E0E936F80771F71092D4
:101A9000690490E080E03BE0389FF001399FF00D51
:101AA0001124E752FC4F2081422F4F7089F0207E95
:101AB000208311961C921E9212961D921D921D92C9
:101AC0001C92159716961D921D921D921C921997A5
:101AD00001961B968E309105F9F660E471E08BE675
:101AE00094E00C94C106CF93DF9300D000D000D0D7
:101AF000CDB7DEB7789484B5826084BD84B581604B
:101B000084BD85B5826085BD85B5816085BD8091C8
:101B10006E00816080936E00109281008091810040
:101B20008260809381008091810081608093810038
:101B3000809180008160809380008091B1008460FA
:101B40008093B1008091B00081608093B00080915B
:101B50007A00846080937A0080917A00826080931A
:101B60007A0080917A00816080937A0080917A0077
:101B7000806880937A001092C100E0914203F09156
:101B8000430382E08083E0913E03F0913F031082A3
:101B9000E0914003F09141038FEC808310924A035F
:101BA000E0914603F091470386E08083E09144038F
:101BB000F0914503808180618083E0914403F0913E
:101BC0004503808188608083E0914403F091450360
:101BD000808180688083E0914403F0914503808197
:101BE0008F7D80838DE00E94890082E00E948900C1
:101BF0008AE00E9489006FED72E0CE0101960E949A
:101C0000C106CE0101960E944D0560E073E0CE0151
:101C100001960E94C106CE0101960E944D0581E504
:101C20009AE0909327038093260380912C03909150
:101C30002D03A0912E03B0912F038093280390933E
:101C40002903A0932A03B0932B030E943E028CE247
:101C500091E0A0E0B0E08093020190930301A09393
:101C60000401B093050180912C0390912D03A09164
:101C70002E03B0912F03845D9E4FAF4FBF4F8093D3
:101C8000280390932903A0932A03B0932B0304E025
:101C900010E020E043EB57E069E079EC81E090E070
:101CA0000E94760420E043EB57E069E87DEB85E095
:101CB00090E00E94760420E043EB57E069E870E68C
:101CC00088E090E00E94760403E010E020E045EF19
:101CD00056E068E274E081E090E00E94760420E043
:101CE00042E157E060E479E181E090E00E9476040F
:101CF00020E048E558E061E479E181E090E00E946D
:101D000076048BE0B82EAA24A3940E9400026B01F3
:101D10007C010E9400026C197D098E099F09693EB1
:101D200073408105910508F058C0809169048111C4
:101D3000F0CFA092690410926A04E0916A04EE3038
:101D400008F048C0BE9EF0011124E752FC4F80818C
:101D500084FF30C00E943E0220916A04B29ED001EE
:101D60001124FD01E153FC4F46805780608471844B
:101D70006415750586059705E8F000811181A75265
:101D8000BC4F9C9195FF1CC02E3078F4892F8F702A
:101D900061F0907E9C9311821082128213821482D1
:101DA000158216821782108611860115110511F011
:101DB000F801099580916A048F5F80936A04BDCF12
:101DC00094FFF3CF2B9DC001112481539C4F0E949F
:101DD000EA02EBCF109269049CCF0E944E068091DC
:101DE000310360E0811101C061E082E00E94B40132
:101DF0008091300360E0811101C061E08AE00E94BF
:101E0000B4010E941B01882309F47FCF0E9480093E
:101E10007CCF8BE694E00C944D051F93FC01992731
:101E20008827BC01E89411911032E9F3193010F0C1
:101E30001E30C8F31B3251F01D3249F4689406C0BD
:101E40000E943F0F610F711D811D911D1191105353
:101E50001A30B0F33EF490958095709561957F4F60
:101E60008F4F9F4F1F910895BB274A3031F499231C
:101E700022F4BDE2909581959F4F0C94550F592FF8
:101E8000482F372F262F660F771F881F991F660F41
:101E9000771F881F991F620F731F841F951F660F7E
:101EA000771F881F991F0895BB27FB015527AA2775
:101EB000880F991FAA1FA41710F0A41B83955051D7
:101EC000B9F7A05DAA3308F0A95DA193009779F74F
:101ED000B111B1931192CB010C946E0FDC01FC0196
:101EE000672F71917723E1F7329704C07C916D934E
:101EF00070836291AE17BF07C8F308950E94C00FA8
:101F0000A59F900DB49F900DA49F800D911D11244D
:101F100008952F923F924F925F926F927F928F928D
:101F20009F92AF92BF92CF92DF92EF92FF920F9368
:101F30001F93CF93DF93CDB7DEB7CA1BDB0B0FB672
:101F4000F894DEBF0FBECDBF09942A88398848882F
:101F50005F846E847D848C849B84AA84B984C884C5
:101F6000DF80EE80FD800C811B81AA81B981CE0FBC
:101F7000D11D0FB6F894DEBF0FBECDBFED010895A1
:101F8000A29FB001B39FC001A39F700D811D1124BA
:101F9000911DB29F700D811D1124911D0895DB01CB
:101FA0008F939F930E947E0FBF91AF91A29F800D50
:101FB000911DA39F900DB29F900D1124089597FB42
:101FC000072E16F4009407D077FD09D00E941D104B
:101FD00007FC05D03EF4909581959F4F089570952C
:101FE00061957F4F0895A1E21A2EAA1BBB1BFD012C
:101FF0000DC0AA1FBB1FEE1FFF1FA217B307E407E8
:10200000F50720F0A21BB30BE40BF50B661F771F3F
:10201000881F991F1A9469F760957095809590951F
:102020009B01AC01BD01CF010895B7FF0C947E0F59
:102030000E947E0F821B930B0895AA1BBB1B51E1CC
:1020400007C0AA1FBB1FA617B70710F0A61BB70B28
:10205000881F991F5A95A9F780959095BC01CD01CD
:102060000895EE0FFF1F0590F491E02D09940F9352
:102070001F93CF93DF938230910510F482E090E0BC
:10208000E0917304F091740430E020E0B0E0A0E04F
:10209000309799F42115310509F44AC0281B390BF2
:1020A00024303105D8F58A819B816115710589F14C
:1020B000FB0193838283FE0111C040815181028123
:1020C000138148175907E0F04817590799F41097FA
:1020D00061F012960C93129713961C933296CF01CF
:1020E000DF91CF911F910F91089500937304109386
:1020F0007404F4CF2115310551F04217530738F01D
:10210000A901DB019A01BD01DF01F801C1CFEF0197
:10211000F9CF9093740480937304CDCFFE01E20F46
:10212000F31F819391932250310939832883D7CFAC
:102130002091710430917204232B41F42091080105
:1021400030910901309372042093710420910601AB
:10215000309107012115310541F42DB73EB740916B
:102160000A0150910B01241B350BE0917104F09191
:102170007204E217F307A0F42E1B3F0B2817390750
:1021800078F0AC014E5F5F4F2417350748F04E0FD3
:102190005F1F5093720440937104819391939FCF7A
:1021A000F0E0E0E09CCFCF93DF930097E9F0FC01F3
:1021B000329713821282A0917304B0917404ED01DE
:1021C00030E020E01097A1F420813181820F931F2D
:1021D00020917104309172042817390709F061C009
:1021E000F0937204E0937104DF91CF910895EA01B6
:1021F000CE17DF07E8F54A815B819E014115510545
:10220000B1F7E901FB83EA8349915991C40FD51FC6
:10221000EC17FD0761F4808191810296840F951F70
:10222000E90199838883828193819B838A83F0E08B
:10223000E0E012968D919C9113970097B9F52D913E
:102240003C911197CD010296820F931F209171044A
:10225000309172042817390739F6309751F51092EA
:10226000740410927304B0937204A0937104BCCFF1
:10227000D383C28340815181840F951FC817D9072A
:1022800061F44E5F5F4F88819981480F591F5183D8
:1022900040838A819B81938382832115310509F0D4
:1022A000B0CFF0937404E09373049ECFFD01DC0182
:1022B000C0CF13821282D7CFB0E0A0E0E2E6F1E116
:1022C0000C948B0F8C01009751F4CB010E943710B6
:1022D0008C01C801CDB7DEB7E0E10C94A70FFC017B
:1022E000E60FF71F9C0122503109E217F30708F4AB
:1022F0009DC0D901CD91DC911197C617D70798F0F1
:10230000C530D10530F3CE0104978617970708F33F
:10231000C61BD70B2297C193D1936D937C93CF01AA
:102320000E94D310D6CF5B01AC1ABD0A4C018C0EB3
:102330009D1EA0917304B0917404512C412CF12C7A
:10234000E12C109731F580917104909172048815F9
:10235000990509F05CC04616570608F058C08091F0
:10236000060190910701009741F48DB79EB7409107
:102370000A0150910B01841B950BE817F90708F02F
:1023800055C0F0937204E0937104F9017183608386
:10239000A0CF8D919C91119712966C9012971396E5
:1023A0007C901397A815B90559F56C0142E0C40E4D
:1023B000D11CCA14DB0420F1AC014A195B09DA0113
:1023C0001296159780F06282738251834083D901FF
:1023D0006D937C93E114F10471F0D7011396FC9393
:1023E000EE93129776CF22968C0F9D1FF901918361
:1023F0008083F301EFCFF0937404E093730469CF0B
:102400004816590608F42C017D01D3019ACFCB015F
:102410000E9437107C01009749F0AE01B8010E947C
:102420001912C8010E94D310870153CF10E000E0B9
:1024300050CFFB01DC0102C001900D924150504091
:10244000D8F70895FB01DC018D91019080190110EE
:10245000D9F3990B0895FB01DC0101900D92002046
:10246000E1F70895FB01DC014150504030F08D91BF
:102470000190801919F40020B9F7881B990B089571
:10248000FB0151915523A9F0BF01DC014D91451786
:102490004111E1F759F4CD010190002049F04D912F
:1024A00040154111C9F3FB014111EFCF81E090E0EC
:1024B0000197089510E0CDE5D0E004C0FE010E9430
:0E24C00031102196CE35D107C9F7F894FFCF21
:1024CE0008002C0100000000750480001F1C1F1E58
:1024DE001F1E1F1F1E1F1E1F000000004701A80009
:1024EE00DE0094010F01ED00010153544154555388
:1024FE003A007C0054494D4572726F723A000D0AD3
:10250E00005475726E6564204C6967687473204F51
:10251E004E005475726E6564204C69676874732042
:10252E004F4646005475726E65642057617465722D
:10253E00204F4646005475726E656420576174656F
:10254E0072204F4E005475726E696E672073636809
:10255E006564756C6564207761746572206F6E2E8C
:10256E0000426567696E206C69676874626C6F63A0
:10257E006B2023005374617274204C696768742059
:10258E0053657175656E636520666F72200020332A
:10259E0030206D696E757465207365676D656E7438
:1025AE007300526563656976656420003000457876
:1025BE0065637574696E67206D616E75616C2063FD
:1025CE006F6D6D616E6473004D616E75616C20543C
:1025DE0075726E6564204F4E00434F4D4D414E4413
:1025EE003A0041434B3A00524553504F4E53453AF1
:1025FE0031004543484F3A004543484F3A200020AA
:10260E0066726F6D2041726475696E6F210053544E
:10261E00415455530054494D450A0054494D450007
:10262E004661696C656420746F2072656164207404
:10263E00696D652E205265747279696E672E2E2E25
:10264E0000476F742074696D6520004D61782074A9
:10265E00696D652073657474696E67206174746545
:10266E006D70747320726561636865642E205265A7
:10267E007475726E696E6720302E2E2E00436F7544
:10268E006C64206E6F74207365742074696D6520A0
:10269E0066726F6D2073796E63206A6F622E0053BF
:1026AE00657474696E672074696D6520666F72203B
:1026BE007468652066697273742074696D653A007A
:1026CE0053657474696E6720616C61726D207469F4
:0626DE006D6572732E0011
:00000001FF
